{
  "_format": "hh-sol-artifact-1",
  "contractName": "Bob",
  "sourceName": "contracts/Bob.sol",
  "abi": [
    {
      "inputs": [],
      "stateMutability": "nonpayable",
      "type": "constructor"
    },
    {
      "anonymous": false,
      "inputs": [
        {
          "indexed": true,
          "internalType": "address",
          "name": "owner",
          "type": "address"
        },
        {
          "indexed": true,
          "internalType": "address",
          "name": "approved",
          "type": "address"
        },
        {
          "indexed": true,
          "internalType": "uint256",
          "name": "tokenId",
          "type": "uint256"
        }
      ],
      "name": "Approval",
      "type": "event"
    },
    {
      "anonymous": false,
      "inputs": [
        {
          "indexed": true,
          "internalType": "address",
          "name": "owner",
          "type": "address"
        },
        {
          "indexed": true,
          "internalType": "address",
          "name": "operator",
          "type": "address"
        },
        {
          "indexed": false,
          "internalType": "bool",
          "name": "approved",
          "type": "bool"
        }
      ],
      "name": "ApprovalForAll",
      "type": "event"
    },
    {
      "anonymous": false,
      "inputs": [
        {
          "indexed": false,
          "internalType": "uint256",
          "name": "_fromTokenId",
          "type": "uint256"
        },
        {
          "indexed": false,
          "internalType": "uint256",
          "name": "_toTokenId",
          "type": "uint256"
        }
      ],
      "name": "BatchMetadataUpdate",
      "type": "event"
    },
    {
      "anonymous": false,
      "inputs": [
        {
          "indexed": false,
          "internalType": "uint256",
          "name": "_tokenId",
          "type": "uint256"
        }
      ],
      "name": "MetadataUpdate",
      "type": "event"
    },
    {
      "anonymous": false,
      "inputs": [
        {
          "indexed": true,
          "internalType": "address",
          "name": "previousOwner",
          "type": "address"
        },
        {
          "indexed": true,
          "internalType": "address",
          "name": "newOwner",
          "type": "address"
        }
      ],
      "name": "OwnershipTransferred",
      "type": "event"
    },
    {
      "anonymous": false,
      "inputs": [
        {
          "indexed": true,
          "internalType": "address",
          "name": "from",
          "type": "address"
        },
        {
          "indexed": true,
          "internalType": "address",
          "name": "to",
          "type": "address"
        },
        {
          "indexed": true,
          "internalType": "uint256",
          "name": "tokenId",
          "type": "uint256"
        }
      ],
      "name": "Transfer",
      "type": "event"
    },
    {
      "inputs": [
        {
          "internalType": "address",
          "name": "to",
          "type": "address"
        },
        {
          "internalType": "uint256",
          "name": "tokenId",
          "type": "uint256"
        }
      ],
      "name": "approve",
      "outputs": [],
      "stateMutability": "nonpayable",
      "type": "function"
    },
    {
      "inputs": [
        {
          "internalType": "address",
          "name": "owner",
          "type": "address"
        }
      ],
      "name": "balanceOf",
      "outputs": [
        {
          "internalType": "uint256",
          "name": "",
          "type": "uint256"
        }
      ],
      "stateMutability": "view",
      "type": "function"
    },
    {
      "inputs": [
        {
          "internalType": "uint256",
          "name": "tokenId",
          "type": "uint256"
        }
      ],
      "name": "getApproved",
      "outputs": [
        {
          "internalType": "address",
          "name": "",
          "type": "address"
        }
      ],
      "stateMutability": "view",
      "type": "function"
    },
    {
      "inputs": [
        {
          "internalType": "address",
          "name": "owner",
          "type": "address"
        },
        {
          "internalType": "address",
          "name": "operator",
          "type": "address"
        }
      ],
      "name": "isApprovedForAll",
      "outputs": [
        {
          "internalType": "bool",
          "name": "",
          "type": "bool"
        }
      ],
      "stateMutability": "view",
      "type": "function"
    },
    {
      "inputs": [],
      "name": "mintNFT",
      "outputs": [
        {
          "internalType": "uint256",
          "name": "",
          "type": "uint256"
        }
      ],
      "stateMutability": "nonpayable",
      "type": "function"
    },
    {
      "inputs": [],
      "name": "name",
      "outputs": [
        {
          "internalType": "string",
          "name": "",
          "type": "string"
        }
      ],
      "stateMutability": "view",
      "type": "function"
    },
    {
      "inputs": [],
      "name": "owner",
      "outputs": [
        {
          "internalType": "address",
          "name": "",
          "type": "address"
        }
      ],
      "stateMutability": "view",
      "type": "function"
    },
    {
      "inputs": [
        {
          "internalType": "uint256",
          "name": "tokenId",
          "type": "uint256"
        }
      ],
      "name": "ownerOf",
      "outputs": [
        {
          "internalType": "address",
          "name": "",
          "type": "address"
        }
      ],
      "stateMutability": "view",
      "type": "function"
    },
    {
      "inputs": [],
      "name": "renounceOwnership",
      "outputs": [],
      "stateMutability": "nonpayable",
      "type": "function"
    },
    {
      "inputs": [
        {
          "internalType": "address",
          "name": "from",
          "type": "address"
        },
        {
          "internalType": "address",
          "name": "to",
          "type": "address"
        },
        {
          "internalType": "uint256",
          "name": "tokenId",
          "type": "uint256"
        }
      ],
      "name": "safeTransferFrom",
      "outputs": [],
      "stateMutability": "nonpayable",
      "type": "function"
    },
    {
      "inputs": [
        {
          "internalType": "address",
          "name": "from",
          "type": "address"
        },
        {
          "internalType": "address",
          "name": "to",
          "type": "address"
        },
        {
          "internalType": "uint256",
          "name": "tokenId",
          "type": "uint256"
        },
        {
          "internalType": "bytes",
          "name": "data",
          "type": "bytes"
        }
      ],
      "name": "safeTransferFrom",
      "outputs": [],
      "stateMutability": "nonpayable",
      "type": "function"
    },
    {
      "inputs": [
        {
          "internalType": "address",
          "name": "operator",
          "type": "address"
        },
        {
          "internalType": "bool",
          "name": "approved",
          "type": "bool"
        }
      ],
      "name": "setApprovalForAll",
      "outputs": [],
      "stateMutability": "nonpayable",
      "type": "function"
    },
    {
      "inputs": [
        {
          "internalType": "bytes4",
          "name": "interfaceId",
          "type": "bytes4"
        }
      ],
      "name": "supportsInterface",
      "outputs": [
        {
          "internalType": "bool",
          "name": "",
          "type": "bool"
        }
      ],
      "stateMutability": "view",
      "type": "function"
    },
    {
      "inputs": [],
      "name": "symbol",
      "outputs": [
        {
          "internalType": "string",
          "name": "",
          "type": "string"
        }
      ],
      "stateMutability": "view",
      "type": "function"
    },
    {
      "inputs": [
        {
          "internalType": "uint256",
          "name": "tokenId",
          "type": "uint256"
        }
      ],
      "name": "tokenURI",
      "outputs": [
        {
          "internalType": "string",
          "name": "",
          "type": "string"
        }
      ],
      "stateMutability": "view",
      "type": "function"
    },
    {
      "inputs": [],
      "name": "totalSupply",
      "outputs": [
        {
          "internalType": "uint256",
          "name": "",
          "type": "uint256"
        }
      ],
      "stateMutability": "view",
      "type": "function"
    },
    {
      "inputs": [
        {
          "internalType": "address",
          "name": "from",
          "type": "address"
        },
        {
          "internalType": "address",
          "name": "to",
          "type": "address"
        },
        {
          "internalType": "uint256",
          "name": "tokenId",
          "type": "uint256"
        }
      ],
      "name": "transferFrom",
      "outputs": [],
      "stateMutability": "nonpayable",
      "type": "function"
    },
    {
      "inputs": [
        {
          "internalType": "address",
          "name": "newOwner",
          "type": "address"
        }
      ],
      "name": "transferOwnership",
      "outputs": [],
      "stateMutability": "nonpayable",
      "type": "function"
    }
  ],
  "bytecode": "0x60806040523480156200001157600080fd5b506040518060600160405280602581526020016200332b602591396040518060400160405280600381526020017f426f6200000000000000000000000000000000000000000000000000000000008152508160009081620000739190620003f6565b508060019081620000859190620003f6565b505050620000a86200009c620000ae60201b60201c565b620000b660201b60201c565b620004dd565b600033905090565b6000600760009054906101000a900473ffffffffffffffffffffffffffffffffffffffff16905081600760006101000a81548173ffffffffffffffffffffffffffffffffffffffff021916908373ffffffffffffffffffffffffffffffffffffffff1602179055508173ffffffffffffffffffffffffffffffffffffffff168173ffffffffffffffffffffffffffffffffffffffff167f8be0079c531659141344cd1fd0a4f28419497f9722a3daafe3b4186f6b6457e060405160405180910390a35050565b600081519050919050565b7f4e487b7100000000000000000000000000000000000000000000000000000000600052604160045260246000fd5b7f4e487b7100000000000000000000000000000000000000000000000000000000600052602260045260246000fd5b60006002820490506001821680620001fe57607f821691505b602082108103620002145762000213620001b6565b5b50919050565b60008190508160005260206000209050919050565b60006020601f8301049050919050565b600082821b905092915050565b6000600883026200027e7fffffffffffffffffffffffffffffffffffffffffffffffffffffffffffffffff826200023f565b6200028a86836200023f565b95508019841693508086168417925050509392505050565b6000819050919050565b6000819050919050565b6000620002d7620002d1620002cb84620002a2565b620002ac565b620002a2565b9050919050565b6000819050919050565b620002f383620002b6565b6200030b6200030282620002de565b8484546200024c565b825550505050565b600090565b6200032262000313565b6200032f818484620002e8565b505050565b5b8181101562000357576200034b60008262000318565b60018101905062000335565b5050565b601f821115620003a65762000370816200021a565b6200037b846200022f565b810160208510156200038b578190505b620003a36200039a856200022f565b83018262000334565b50505b505050565b600082821c905092915050565b6000620003cb60001984600802620003ab565b1980831691505092915050565b6000620003e68383620003b8565b9150826002028217905092915050565b62000401826200017c565b67ffffffffffffffff8111156200041d576200041c62000187565b5b620004298254620001e5565b620004368282856200035b565b600060209050601f8311600181146200046e576000841562000459578287015190505b620004658582620003d8565b865550620004d5565b601f1984166200047e866200021a565b60005b82811015620004a85784890151825560018201915060208501945060208101905062000481565b86831015620004c85784890151620004c4601f891682620003b8565b8355505b6001600288020188555050505b505050505050565b612e3e80620004ed6000396000f3fe608060405234801561001057600080fd5b50600436106101165760003560e01c806370a08231116100a2578063a22cb46511610071578063a22cb465146102cf578063b88d4fde146102eb578063c87b56dd14610307578063e985e9c514610337578063f2fde38b1461036757610116565b806370a0823114610259578063715018a6146102895780638da5cb5b1461029357806395d89b41146102b157610116565b806314f710fe116100e957806314f710fe146101b557806318160ddd146101d357806323b872dd146101f157806342842e0e1461020d5780636352211e1461022957610116565b806301ffc9a71461011b57806306fdde031461014b578063081812fc14610169578063095ea7b314610199575b600080fd5b61013560048036038101906101309190611cf7565b610383565b6040516101429190611d3f565b60405180910390f35b6101536103e4565b6040516101609190611dea565b60405180910390f35b610183600480360381019061017e9190611e42565b610476565b6040516101909190611eb0565b60405180910390f35b6101b360048036038101906101ae9190611ef7565b6104bc565b005b6101bd6105d3565b6040516101ca9190611f46565b60405180910390f35b6101db610628565b6040516101e89190611f46565b60405180910390f35b61020b60048036038101906102069190611f61565b610639565b005b61022760048036038101906102229190611f61565b610699565b005b610243600480360381019061023e9190611e42565b6106b9565b6040516102509190611eb0565b60405180910390f35b610273600480360381019061026e9190611fb4565b61073f565b6040516102809190611f46565b60405180910390f35b6102916107f6565b005b61029b61080a565b6040516102a89190611eb0565b60405180910390f35b6102b9610834565b6040516102c69190611dea565b60405180910390f35b6102e960048036038101906102e4919061200d565b6108c6565b005b61030560048036038101906103009190612182565b6108dc565b005b610321600480360381019061031c9190611e42565b61093e565b60405161032e9190611dea565b60405180910390f35b610351600480360381019061034c9190612205565b610a50565b60405161035e9190611d3f565b60405180910390f35b610381600480360381019061037c9190611fb4565b610ae4565b005b6000634906490660e01b7bffffffffffffffffffffffffffffffffffffffffffffffffffffffff1916827bffffffffffffffffffffffffffffffffffffffffffffffffffffffff191614806103dd57506103dc82610b67565b5b9050919050565b6060600080546103f390612274565b80601f016020809104026020016040519081016040528092919081815260200182805461041f90612274565b801561046c5780601f106104415761010080835404028352916020019161046c565b820191906000526020600020905b81548152906001019060200180831161044f57829003601f168201915b5050505050905090565b600061048182610c49565b6004600083815260200190815260200160002060009054906101000a900473ffffffffffffffffffffffffffffffffffffffff169050919050565b60006104c7826106b9565b90508073ffffffffffffffffffffffffffffffffffffffff168373ffffffffffffffffffffffffffffffffffffffff1603610537576040517f08c379a000000000000000000000000000000000000000000000000000000000815260040161052e90612317565b60405180910390fd5b8073ffffffffffffffffffffffffffffffffffffffff16610556610c94565b73ffffffffffffffffffffffffffffffffffffffff16148061058557506105848161057f610c94565b610a50565b5b6105c4576040517f08c379a00000000000000000000000000000000000000000000000000000000081526004016105bb906123a9565b60405180910390fd5b6105ce8383610c9c565b505050565b60006105dd610d55565b6105e76008610dd3565b60006105f36008610de9565b90506105ff3382610df7565b61062181604051806060016040528060358152602001612dd460359139610e15565b8091505090565b60006106346008610de9565b905090565b61064a610644610c94565b82610eb9565b610689576040517f08c379a00000000000000000000000000000000000000000000000000000000081526004016106809061243b565b60405180910390fd5b610694838383610f4e565b505050565b6106b4838383604051806020016040528060008152506108dc565b505050565b6000806106c583611247565b9050600073ffffffffffffffffffffffffffffffffffffffff168173ffffffffffffffffffffffffffffffffffffffff1603610736576040517f08c379a000000000000000000000000000000000000000000000000000000000815260040161072d906124a7565b60405180910390fd5b80915050919050565b60008073ffffffffffffffffffffffffffffffffffffffff168273ffffffffffffffffffffffffffffffffffffffff16036107af576040517f08c379a00000000000000000000000000000000000000000000000000000000081526004016107a690612539565b60405180910390fd5b600360008373ffffffffffffffffffffffffffffffffffffffff1673ffffffffffffffffffffffffffffffffffffffff168152602001908152602001600020549050919050565b6107fe610d55565b6108086000611284565b565b6000600760009054906101000a900473ffffffffffffffffffffffffffffffffffffffff16905090565b60606001805461084390612274565b80601f016020809104026020016040519081016040528092919081815260200182805461086f90612274565b80156108bc5780601f10610891576101008083540402835291602001916108bc565b820191906000526020600020905b81548152906001019060200180831161089f57829003601f168201915b5050505050905090565b6108d86108d1610c94565b838361134a565b5050565b6108ed6108e7610c94565b83610eb9565b61092c576040517f08c379a00000000000000000000000000000000000000000000000000000000081526004016109239061243b565b60405180910390fd5b610938848484846114b6565b50505050565b606061094982610c49565b600060066000848152602001908152602001600020805461096990612274565b80601f016020809104026020016040519081016040528092919081815260200182805461099590612274565b80156109e25780601f106109b7576101008083540402835291602001916109e2565b820191906000526020600020905b8154815290600101906020018083116109c557829003601f168201915b5050505050905060006109f3611512565b90506000815103610a08578192505050610a4b565b600082511115610a3d578082604051602001610a25929190612595565b60405160208183030381529060405292505050610a4b565b610a4684611529565b925050505b919050565b6000600560008473ffffffffffffffffffffffffffffffffffffffff1673ffffffffffffffffffffffffffffffffffffffff16815260200190815260200160002060008373ffffffffffffffffffffffffffffffffffffffff1673ffffffffffffffffffffffffffffffffffffffff16815260200190815260200160002060009054906101000a900460ff16905092915050565b610aec610d55565b600073ffffffffffffffffffffffffffffffffffffffff168173ffffffffffffffffffffffffffffffffffffffff1603610b5b576040517f08c379a0000000000000000000000000000000000000000000000000000000008152600401610b529061262b565b60405180910390fd5b610b6481611284565b50565b60007f80ac58cd000000000000000000000000000000000000000000000000000000007bffffffffffffffffffffffffffffffffffffffffffffffffffffffff1916827bffffffffffffffffffffffffffffffffffffffffffffffffffffffff19161480610c3257507f5b5e139f000000000000000000000000000000000000000000000000000000007bffffffffffffffffffffffffffffffffffffffffffffffffffffffff1916827bffffffffffffffffffffffffffffffffffffffffffffffffffffffff1916145b80610c425750610c4182611591565b5b9050919050565b610c52816115fb565b610c91576040517f08c379a0000000000000000000000000000000000000000000000000000000008152600401610c88906124a7565b60405180910390fd5b50565b600033905090565b816004600083815260200190815260200160002060006101000a81548173ffffffffffffffffffffffffffffffffffffffff021916908373ffffffffffffffffffffffffffffffffffffffff160217905550808273ffffffffffffffffffffffffffffffffffffffff16610d0f836106b9565b73ffffffffffffffffffffffffffffffffffffffff167f8c5be1e5ebec7d5bd14f71427d1e84f3dd0314c0f7b2291e5b200ac8c7c3b92560405160405180910390a45050565b610d5d610c94565b73ffffffffffffffffffffffffffffffffffffffff16610d7b61080a565b73ffffffffffffffffffffffffffffffffffffffff1614610dd1576040517f08c379a0000000000000000000000000000000000000000000000000000000008152600401610dc890612697565b60405180910390fd5b565b6001816000016000828254019250508190555050565b600081600001549050919050565b610e1182826040518060200160405280600081525061163c565b5050565b610e1e826115fb565b610e5d576040517f08c379a0000000000000000000000000000000000000000000000000000000008152600401610e5490612729565b60405180910390fd5b80600660008481526020019081526020016000209081610e7d91906128f5565b507ff8e1a15aba9398e019f0b49df1a4fde98ee17ae345cb5f6b5e2c27f5033e8ce782604051610ead9190611f46565b60405180910390a15050565b600080610ec5836106b9565b90508073ffffffffffffffffffffffffffffffffffffffff168473ffffffffffffffffffffffffffffffffffffffff161480610f075750610f068185610a50565b5b80610f4557508373ffffffffffffffffffffffffffffffffffffffff16610f2d84610476565b73ffffffffffffffffffffffffffffffffffffffff16145b91505092915050565b8273ffffffffffffffffffffffffffffffffffffffff16610f6e826106b9565b73ffffffffffffffffffffffffffffffffffffffff1614610fc4576040517f08c379a0000000000000000000000000000000000000000000000000000000008152600401610fbb90612a39565b60405180910390fd5b600073ffffffffffffffffffffffffffffffffffffffff168273ffffffffffffffffffffffffffffffffffffffff1603611033576040517f08c379a000000000000000000000000000000000000000000000000000000000815260040161102a90612acb565b60405180910390fd5b6110408383836001611697565b8273ffffffffffffffffffffffffffffffffffffffff16611060826106b9565b73ffffffffffffffffffffffffffffffffffffffff16146110b6576040517f08c379a00000000000000000000000000000000000000000000000000000000081526004016110ad90612a39565b60405180910390fd5b6004600082815260200190815260200160002060006101000a81549073ffffffffffffffffffffffffffffffffffffffff02191690556001600360008573ffffffffffffffffffffffffffffffffffffffff1673ffffffffffffffffffffffffffffffffffffffff168152602001908152602001600020600082825403925050819055506001600360008473ffffffffffffffffffffffffffffffffffffffff1673ffffffffffffffffffffffffffffffffffffffff16815260200190815260200160002060008282540192505081905550816002600083815260200190815260200160002060006101000a81548173ffffffffffffffffffffffffffffffffffffffff021916908373ffffffffffffffffffffffffffffffffffffffff160217905550808273ffffffffffffffffffffffffffffffffffffffff168473ffffffffffffffffffffffffffffffffffffffff167fddf252ad1be2c89b69c2b068fc378daa952ba7f163c4a11628f55a4df523b3ef60405160405180910390a4611242838383600161169d565b505050565b60006002600083815260200190815260200160002060009054906101000a900473ffffffffffffffffffffffffffffffffffffffff169050919050565b6000600760009054906101000a900473ffffffffffffffffffffffffffffffffffffffff16905081600760006101000a81548173ffffffffffffffffffffffffffffffffffffffff021916908373ffffffffffffffffffffffffffffffffffffffff1602179055508173ffffffffffffffffffffffffffffffffffffffff168173ffffffffffffffffffffffffffffffffffffffff167f8be0079c531659141344cd1fd0a4f28419497f9722a3daafe3b4186f6b6457e060405160405180910390a35050565b8173ffffffffffffffffffffffffffffffffffffffff168373ffffffffffffffffffffffffffffffffffffffff16036113b8576040517f08c379a00000000000000000000000000000000000000000000000000000000081526004016113af90612b37565b60405180910390fd5b80600560008573ffffffffffffffffffffffffffffffffffffffff1673ffffffffffffffffffffffffffffffffffffffff16815260200190815260200160002060008473ffffffffffffffffffffffffffffffffffffffff1673ffffffffffffffffffffffffffffffffffffffff16815260200190815260200160002060006101000a81548160ff0219169083151502179055508173ffffffffffffffffffffffffffffffffffffffff168373ffffffffffffffffffffffffffffffffffffffff167f17307eab39ab6107e8899845ad3d59bd9653f200f220920489ca2b5937696c31836040516114a99190611d3f565b60405180910390a3505050565b6114c1848484610f4e565b6114cd848484846116a3565b61150c576040517f08c379a000000000000000000000000000000000000000000000000000000000815260040161150390612bc9565b60405180910390fd5b50505050565b606060405180602001604052806000815250905090565b606061153482610c49565b600061153e611512565b9050600081511161155e5760405180602001604052806000815250611589565b806115688461182a565b604051602001611579929190612595565b6040516020818303038152906040525b915050919050565b60007f01ffc9a7000000000000000000000000000000000000000000000000000000007bffffffffffffffffffffffffffffffffffffffffffffffffffffffff1916827bffffffffffffffffffffffffffffffffffffffffffffffffffffffff1916149050919050565b60008073ffffffffffffffffffffffffffffffffffffffff1661161d83611247565b73ffffffffffffffffffffffffffffffffffffffff1614159050919050565b61164683836118f8565b61165360008484846116a3565b611692576040517f08c379a000000000000000000000000000000000000000000000000000000000815260040161168990612bc9565b60405180910390fd5b505050565b50505050565b50505050565b60006116c48473ffffffffffffffffffffffffffffffffffffffff16611b15565b1561181d578373ffffffffffffffffffffffffffffffffffffffff1663150b7a026116ed610c94565b8786866040518563ffffffff1660e01b815260040161170f9493929190612c3e565b6020604051808303816000875af192505050801561174b57506040513d601f19601f820116820180604052508101906117489190612c9f565b60015b6117cd573d806000811461177b576040519150601f19603f3d011682016040523d82523d6000602084013e611780565b606091505b5060008151036117c5576040517f08c379a00000000000000000000000000000000000000000000000000000000081526004016117bc90612bc9565b60405180910390fd5b805181602001fd5b63150b7a0260e01b7bffffffffffffffffffffffffffffffffffffffffffffffffffffffff1916817bffffffffffffffffffffffffffffffffffffffffffffffffffffffff191614915050611822565b600190505b949350505050565b60606000600161183984611b38565b01905060008167ffffffffffffffff81111561185857611857612057565b5b6040519080825280601f01601f19166020018201604052801561188a5781602001600182028036833780820191505090505b509050600082602001820190505b6001156118ed578080600190039150507f3031323334353637383961626364656600000000000000000000000000000000600a86061a8153600a85816118e1576118e0612ccc565b5b04945060008503611898575b819350505050919050565b600073ffffffffffffffffffffffffffffffffffffffff168273ffffffffffffffffffffffffffffffffffffffff1603611967576040517f08c379a000000000000000000000000000000000000000000000000000000000815260040161195e90612d47565b60405180910390fd5b611970816115fb565b156119b0576040517f08c379a00000000000000000000000000000000000000000000000000000000081526004016119a790612db3565b60405180910390fd5b6119be600083836001611697565b6119c7816115fb565b15611a07576040517f08c379a00000000000000000000000000000000000000000000000000000000081526004016119fe90612db3565b60405180910390fd5b6001600360008473ffffffffffffffffffffffffffffffffffffffff1673ffffffffffffffffffffffffffffffffffffffff16815260200190815260200160002060008282540192505081905550816002600083815260200190815260200160002060006101000a81548173ffffffffffffffffffffffffffffffffffffffff021916908373ffffffffffffffffffffffffffffffffffffffff160217905550808273ffffffffffffffffffffffffffffffffffffffff16600073ffffffffffffffffffffffffffffffffffffffff167fddf252ad1be2c89b69c2b068fc378daa952ba7f163c4a11628f55a4df523b3ef60405160405180910390a4611b1160008383600161169d565b5050565b6000808273ffffffffffffffffffffffffffffffffffffffff163b119050919050565b600080600090507a184f03e93ff9f4daa797ed6e38ed64bf6a1f0100000000000000008310611b96577a184f03e93ff9f4daa797ed6e38ed64bf6a1f0100000000000000008381611b8c57611b8b612ccc565b5b0492506040810190505b6d04ee2d6d415b85acef81000000008310611bd3576d04ee2d6d415b85acef81000000008381611bc957611bc8612ccc565b5b0492506020810190505b662386f26fc100008310611c0257662386f26fc100008381611bf857611bf7612ccc565b5b0492506010810190505b6305f5e1008310611c2b576305f5e1008381611c2157611c20612ccc565b5b0492506008810190505b6127108310611c50576127108381611c4657611c45612ccc565b5b0492506004810190505b60648310611c735760648381611c6957611c68612ccc565b5b0492506002810190505b600a8310611c82576001810190505b80915050919050565b6000604051905090565b600080fd5b600080fd5b60007fffffffff0000000000000000000000000000000000000000000000000000000082169050919050565b611cd481611c9f565b8114611cdf57600080fd5b50565b600081359050611cf181611ccb565b92915050565b600060208284031215611d0d57611d0c611c95565b5b6000611d1b84828501611ce2565b91505092915050565b60008115159050919050565b611d3981611d24565b82525050565b6000602082019050611d546000830184611d30565b92915050565b600081519050919050565b600082825260208201905092915050565b60005b83811015611d94578082015181840152602081019050611d79565b60008484015250505050565b6000601f19601f8301169050919050565b6000611dbc82611d5a565b611dc68185611d65565b9350611dd6818560208601611d76565b611ddf81611da0565b840191505092915050565b60006020820190508181036000830152611e048184611db1565b905092915050565b6000819050919050565b611e1f81611e0c565b8114611e2a57600080fd5b50565b600081359050611e3c81611e16565b92915050565b600060208284031215611e5857611e57611c95565b5b6000611e6684828501611e2d565b91505092915050565b600073ffffffffffffffffffffffffffffffffffffffff82169050919050565b6000611e9a82611e6f565b9050919050565b611eaa81611e8f565b82525050565b6000602082019050611ec56000830184611ea1565b92915050565b611ed481611e8f565b8114611edf57600080fd5b50565b600081359050611ef181611ecb565b92915050565b60008060408385031215611f0e57611f0d611c95565b5b6000611f1c85828601611ee2565b9250506020611f2d85828601611e2d565b9150509250929050565b611f4081611e0c565b82525050565b6000602082019050611f5b6000830184611f37565b92915050565b600080600060608486031215611f7a57611f79611c95565b5b6000611f8886828701611ee2565b9350506020611f9986828701611ee2565b9250506040611faa86828701611e2d565b9150509250925092565b600060208284031215611fca57611fc9611c95565b5b6000611fd884828501611ee2565b91505092915050565b611fea81611d24565b8114611ff557600080fd5b50565b60008135905061200781611fe1565b92915050565b6000806040838503121561202457612023611c95565b5b600061203285828601611ee2565b925050602061204385828601611ff8565b9150509250929050565b600080fd5b600080fd5b7f4e487b7100000000000000000000000000000000000000000000000000000000600052604160045260246000fd5b61208f82611da0565b810181811067ffffffffffffffff821117156120ae576120ad612057565b5b80604052505050565b60006120c1611c8b565b90506120cd8282612086565b919050565b600067ffffffffffffffff8211156120ed576120ec612057565b5b6120f682611da0565b9050602081019050919050565b82818337600083830152505050565b6000612125612120846120d2565b6120b7565b90508281526020810184848401111561214157612140612052565b5b61214c848285612103565b509392505050565b600082601f8301126121695761216861204d565b5b8135612179848260208601612112565b91505092915050565b6000806000806080858703121561219c5761219b611c95565b5b60006121aa87828801611ee2565b94505060206121bb87828801611ee2565b93505060406121cc87828801611e2d565b925050606085013567ffffffffffffffff8111156121ed576121ec611c9a565b5b6121f987828801612154565b91505092959194509250565b6000806040838503121561221c5761221b611c95565b5b600061222a85828601611ee2565b925050602061223b85828601611ee2565b9150509250929050565b7f4e487b7100000000000000000000000000000000000000000000000000000000600052602260045260246000fd5b6000600282049050600182168061228c57607f821691505b60208210810361229f5761229e612245565b5b50919050565b7f4552433732313a20617070726f76616c20746f2063757272656e74206f776e6560008201527f7200000000000000000000000000000000000000000000000000000000000000602082015250565b6000612301602183611d65565b915061230c826122a5565b604082019050919050565b60006020820190508181036000830152612330816122f4565b9050919050565b7f4552433732313a20617070726f76652063616c6c6572206973206e6f7420746f60008201527f6b656e206f776e6572206f7220617070726f76656420666f7220616c6c000000602082015250565b6000612393603d83611d65565b915061239e82612337565b604082019050919050565b600060208201905081810360008301526123c281612386565b9050919050565b7f4552433732313a2063616c6c6572206973206e6f7420746f6b656e206f776e6560008201527f72206f7220617070726f76656400000000000000000000000000000000000000602082015250565b6000612425602d83611d65565b9150612430826123c9565b604082019050919050565b6000602082019050818103600083015261245481612418565b9050919050565b7f4552433732313a20696e76616c696420746f6b656e2049440000000000000000600082015250565b6000612491601883611d65565b915061249c8261245b565b602082019050919050565b600060208201905081810360008301526124c081612484565b9050919050565b7f4552433732313a2061646472657373207a65726f206973206e6f74206120766160008201527f6c6964206f776e65720000000000000000000000000000000000000000000000602082015250565b6000612523602983611d65565b915061252e826124c7565b604082019050919050565b6000602082019050818103600083015261255281612516565b9050919050565b600081905092915050565b600061256f82611d5a565b6125798185612559565b9350612589818560208601611d76565b80840191505092915050565b60006125a18285612564565b91506125ad8284612564565b91508190509392505050565b7f4f776e61626c653a206e6577206f776e657220697320746865207a65726f206160008201527f6464726573730000000000000000000000000000000000000000000000000000602082015250565b6000612615602683611d65565b9150612620826125b9565b604082019050919050565b6000602082019050818103600083015261264481612608565b9050919050565b7f4f776e61626c653a2063616c6c6572206973206e6f7420746865206f776e6572600082015250565b6000612681602083611d65565b915061268c8261264b565b602082019050919050565b600060208201905081810360008301526126b081612674565b9050919050565b7f45524337323155524953746f726167653a2055524920736574206f66206e6f6e60008201527f6578697374656e7420746f6b656e000000000000000000000000000000000000602082015250565b6000612713602e83611d65565b915061271e826126b7565b604082019050919050565b6000602082019050818103600083015261274281612706565b9050919050565b60008190508160005260206000209050919050565b60006020601f8301049050919050565b600082821b905092915050565b6000600883026127ab7fffffffffffffffffffffffffffffffffffffffffffffffffffffffffffffffff8261276e565b6127b5868361276e565b95508019841693508086168417925050509392505050565b6000819050919050565b60006127f26127ed6127e884611e0c565b6127cd565b611e0c565b9050919050565b6000819050919050565b61280c836127d7565b612820612818826127f9565b84845461277b565b825550505050565b600090565b612835612828565b612840818484612803565b505050565b5b818110156128645761285960008261282d565b600181019050612846565b5050565b601f8211156128a95761287a81612749565b6128838461275e565b81016020851015612892578190505b6128a661289e8561275e565b830182612845565b50505b505050565b600082821c905092915050565b60006128cc600019846008026128ae565b1980831691505092915050565b60006128e583836128bb565b9150826002028217905092915050565b6128fe82611d5a565b67ffffffffffffffff81111561291757612916612057565b5b6129218254612274565b61292c828285612868565b600060209050601f83116001811461295f576000841561294d578287015190505b61295785826128d9565b8655506129bf565b601f19841661296d86612749565b60005b8281101561299557848901518255600182019150602085019450602081019050612970565b868310156129b257848901516129ae601f8916826128bb565b8355505b6001600288020188555050505b505050505050565b7f4552433732313a207472616e736665722066726f6d20696e636f72726563742060008201527f6f776e6572000000000000000000000000000000000000000000000000000000602082015250565b6000612a23602583611d65565b9150612a2e826129c7565b604082019050919050565b60006020820190508181036000830152612a5281612a16565b9050919050565b7f4552433732313a207472616e7366657220746f20746865207a65726f2061646460008201527f7265737300000000000000000000000000000000000000000000000000000000602082015250565b6000612ab5602483611d65565b9150612ac082612a59565b604082019050919050565b60006020820190508181036000830152612ae481612aa8565b9050919050565b7f4552433732313a20617070726f766520746f2063616c6c657200000000000000600082015250565b6000612b21601983611d65565b9150612b2c82612aeb565b602082019050919050565b60006020820190508181036000830152612b5081612b14565b9050919050565b7f4552433732313a207472616e7366657220746f206e6f6e20455243373231526560008201527f63656976657220696d706c656d656e7465720000000000000000000000000000602082015250565b6000612bb3603283611d65565b9150612bbe82612b57565b604082019050919050565b60006020820190508181036000830152612be281612ba6565b9050919050565b600081519050919050565b600082825260208201905092915050565b6000612c1082612be9565b612c1a8185612bf4565b9350612c2a818560208601611d76565b612c3381611da0565b840191505092915050565b6000608082019050612c536000830187611ea1565b612c606020830186611ea1565b612c6d6040830185611f37565b8181036060830152612c7f8184612c05565b905095945050505050565b600081519050612c9981611ccb565b92915050565b600060208284031215612cb557612cb4611c95565b5b6000612cc384828501612c8a565b91505092915050565b7f4e487b7100000000000000000000000000000000000000000000000000000000600052601260045260246000fd5b7f4552433732313a206d696e7420746f20746865207a65726f2061646472657373600082015250565b6000612d31602083611d65565b9150612d3c82612cfb565b602082019050919050565b60006020820190508181036000830152612d6081612d24565b9050919050565b7f4552433732313a20746f6b656e20616c7265616479206d696e74656400000000600082015250565b6000612d9d601c83611d65565b9150612da882612d67565b602082019050919050565b60006020820190508181036000830152612dcc81612d90565b905091905056fe697066733a2f2f516d6277584a3832324c475464735078646b425552593339636b6d5a4e484e574475705262796e6a4e395536386aa26469706673582212204a2f51225ec7736980fa2904a3f54296d30e46ddcd9e2846e8f669f2e20e26ea64736f6c634300081300334275696c74204f6e20426173652c204f6e636861696e2053756d6d6572205370656369616c",
  "linkReferences": {},
  "deployedLinkReferences": {}
}