{
  "_format": "hh-sol-artifact-1",
  "contractName": "Bob",
  "sourceName": "contracts/Bob.sol",
  "abi": [
    {
      "inputs": [],
      "stateMutability": "nonpayable",
      "type": "constructor"
    },
    {
      "anonymous": false,
      "inputs": [
        {
          "indexed": true,
          "internalType": "address",
          "name": "owner",
          "type": "address"
        },
        {
          "indexed": true,
          "internalType": "address",
          "name": "approved",
          "type": "address"
        },
        {
          "indexed": true,
          "internalType": "uint256",
          "name": "tokenId",
          "type": "uint256"
        }
      ],
      "name": "Approval",
      "type": "event"
    },
    {
      "anonymous": false,
      "inputs": [
        {
          "indexed": true,
          "internalType": "address",
          "name": "owner",
          "type": "address"
        },
        {
          "indexed": true,
          "internalType": "address",
          "name": "operator",
          "type": "address"
        },
        {
          "indexed": false,
          "internalType": "bool",
          "name": "approved",
          "type": "bool"
        }
      ],
      "name": "ApprovalForAll",
      "type": "event"
    },
    {
      "anonymous": false,
      "inputs": [
        {
          "indexed": false,
          "internalType": "uint256",
          "name": "_fromTokenId",
          "type": "uint256"
        },
        {
          "indexed": false,
          "internalType": "uint256",
          "name": "_toTokenId",
          "type": "uint256"
        }
      ],
      "name": "BatchMetadataUpdate",
      "type": "event"
    },
    {
      "anonymous": false,
      "inputs": [
        {
          "indexed": false,
          "internalType": "uint256",
          "name": "_tokenId",
          "type": "uint256"
        }
      ],
      "name": "MetadataUpdate",
      "type": "event"
    },
    {
      "anonymous": false,
      "inputs": [
        {
          "indexed": true,
          "internalType": "address",
          "name": "previousOwner",
          "type": "address"
        },
        {
          "indexed": true,
          "internalType": "address",
          "name": "newOwner",
          "type": "address"
        }
      ],
      "name": "OwnershipTransferred",
      "type": "event"
    },
    {
      "anonymous": false,
      "inputs": [
        {
          "indexed": true,
          "internalType": "address",
          "name": "from",
          "type": "address"
        },
        {
          "indexed": true,
          "internalType": "address",
          "name": "to",
          "type": "address"
        },
        {
          "indexed": true,
          "internalType": "uint256",
          "name": "tokenId",
          "type": "uint256"
        }
      ],
      "name": "Transfer",
      "type": "event"
    },
    {
      "inputs": [
        {
          "internalType": "address",
          "name": "to",
          "type": "address"
        },
        {
          "internalType": "uint256",
          "name": "tokenId",
          "type": "uint256"
        }
      ],
      "name": "approve",
      "outputs": [],
      "stateMutability": "nonpayable",
      "type": "function"
    },
    {
      "inputs": [
        {
          "internalType": "address",
          "name": "owner",
          "type": "address"
        }
      ],
      "name": "balanceOf",
      "outputs": [
        {
          "internalType": "uint256",
          "name": "",
          "type": "uint256"
        }
      ],
      "stateMutability": "view",
      "type": "function"
    },
    {
      "inputs": [
        {
          "internalType": "uint256",
          "name": "tokenId",
          "type": "uint256"
        }
      ],
      "name": "getApproved",
      "outputs": [
        {
          "internalType": "address",
          "name": "",
          "type": "address"
        }
      ],
      "stateMutability": "view",
      "type": "function"
    },
    {
      "inputs": [
        {
          "internalType": "address",
          "name": "owner",
          "type": "address"
        },
        {
          "internalType": "address",
          "name": "operator",
          "type": "address"
        }
      ],
      "name": "isApprovedForAll",
      "outputs": [
        {
          "internalType": "bool",
          "name": "",
          "type": "bool"
        }
      ],
      "stateMutability": "view",
      "type": "function"
    },
    {
      "inputs": [],
      "name": "mintNFT",
      "outputs": [
        {
          "internalType": "uint256",
          "name": "",
          "type": "uint256"
        }
      ],
      "stateMutability": "nonpayable",
      "type": "function"
    },
    {
      "inputs": [],
      "name": "name",
      "outputs": [
        {
          "internalType": "string",
          "name": "",
          "type": "string"
        }
      ],
      "stateMutability": "view",
      "type": "function"
    },
    {
      "inputs": [],
      "name": "owner",
      "outputs": [
        {
          "internalType": "address",
          "name": "",
          "type": "address"
        }
      ],
      "stateMutability": "view",
      "type": "function"
    },
    {
      "inputs": [
        {
          "internalType": "uint256",
          "name": "tokenId",
          "type": "uint256"
        }
      ],
      "name": "ownerOf",
      "outputs": [
        {
          "internalType": "address",
          "name": "",
          "type": "address"
        }
      ],
      "stateMutability": "view",
      "type": "function"
    },
    {
      "inputs": [],
      "name": "renounceOwnership",
      "outputs": [],
      "stateMutability": "nonpayable",
      "type": "function"
    },
    {
      "inputs": [
        {
          "internalType": "address",
          "name": "from",
          "type": "address"
        },
        {
          "internalType": "address",
          "name": "to",
          "type": "address"
        },
        {
          "internalType": "uint256",
          "name": "tokenId",
          "type": "uint256"
        }
      ],
      "name": "safeTransferFrom",
      "outputs": [],
      "stateMutability": "nonpayable",
      "type": "function"
    },
    {
      "inputs": [
        {
          "internalType": "address",
          "name": "from",
          "type": "address"
        },
        {
          "internalType": "address",
          "name": "to",
          "type": "address"
        },
        {
          "internalType": "uint256",
          "name": "tokenId",
          "type": "uint256"
        },
        {
          "internalType": "bytes",
          "name": "data",
          "type": "bytes"
        }
      ],
      "name": "safeTransferFrom",
      "outputs": [],
      "stateMutability": "nonpayable",
      "type": "function"
    },
    {
      "inputs": [
        {
          "internalType": "address",
          "name": "operator",
          "type": "address"
        },
        {
          "internalType": "bool",
          "name": "approved",
          "type": "bool"
        }
      ],
      "name": "setApprovalForAll",
      "outputs": [],
      "stateMutability": "nonpayable",
      "type": "function"
    },
    {
      "inputs": [
        {
          "internalType": "bytes4",
          "name": "interfaceId",
          "type": "bytes4"
        }
      ],
      "name": "supportsInterface",
      "outputs": [
        {
          "internalType": "bool",
          "name": "",
          "type": "bool"
        }
      ],
      "stateMutability": "view",
      "type": "function"
    },
    {
      "inputs": [],
      "name": "symbol",
      "outputs": [
        {
          "internalType": "string",
          "name": "",
          "type": "string"
        }
      ],
      "stateMutability": "view",
      "type": "function"
    },
    {
      "inputs": [
        {
          "internalType": "uint256",
          "name": "tokenId",
          "type": "uint256"
        }
      ],
      "name": "tokenURI",
      "outputs": [
        {
          "internalType": "string",
          "name": "",
          "type": "string"
        }
      ],
      "stateMutability": "view",
      "type": "function"
    },
    {
      "inputs": [],
      "name": "totalSupply",
      "outputs": [
        {
          "internalType": "uint256",
          "name": "",
          "type": "uint256"
        }
      ],
      "stateMutability": "view",
      "type": "function"
    },
    {
      "inputs": [
        {
          "internalType": "address",
          "name": "from",
          "type": "address"
        },
        {
          "internalType": "address",
          "name": "to",
          "type": "address"
        },
        {
          "internalType": "uint256",
          "name": "tokenId",
          "type": "uint256"
        }
      ],
      "name": "transferFrom",
      "outputs": [],
      "stateMutability": "nonpayable",
      "type": "function"
    },
    {
      "inputs": [
        {
          "internalType": "address",
          "name": "newOwner",
          "type": "address"
        }
      ],
      "name": "transferOwnership",
      "outputs": [],
      "stateMutability": "nonpayable",
      "type": "function"
    }
  ],
  "bytecode": "0x60806040523480156200001157600080fd5b5060405180606001604052806025815260200162003323602591396040518060400160405280600381526020017f426f6200000000000000000000000000000000000000000000000000000000008152508160009081620000739190620003f6565b508060019081620000859190620003f6565b505050620000a86200009c620000ae60201b60201c565b620000b660201b60201c565b620004dd565b600033905090565b6000600760009054906101000a900473ffffffffffffffffffffffffffffffffffffffff16905081600760006101000a81548173ffffffffffffffffffffffffffffffffffffffff021916908373ffffffffffffffffffffffffffffffffffffffff1602179055508173ffffffffffffffffffffffffffffffffffffffff168173ffffffffffffffffffffffffffffffffffffffff167f8be0079c531659141344cd1fd0a4f28419497f9722a3daafe3b4186f6b6457e060405160405180910390a35050565b600081519050919050565b7f4e487b7100000000000000000000000000000000000000000000000000000000600052604160045260246000fd5b7f4e487b7100000000000000000000000000000000000000000000000000000000600052602260045260246000fd5b60006002820490506001821680620001fe57607f821691505b602082108103620002145762000213620001b6565b5b50919050565b60008190508160005260206000209050919050565b60006020601f8301049050919050565b600082821b905092915050565b6000600883026200027e7fffffffffffffffffffffffffffffffffffffffffffffffffffffffffffffffff826200023f565b6200028a86836200023f565b95508019841693508086168417925050509392505050565b6000819050919050565b6000819050919050565b6000620002d7620002d1620002cb84620002a2565b620002ac565b620002a2565b9050919050565b6000819050919050565b620002f383620002b6565b6200030b6200030282620002de565b8484546200024c565b825550505050565b600090565b6200032262000313565b6200032f818484620002e8565b505050565b5b8181101562000357576200034b60008262000318565b60018101905062000335565b5050565b601f821115620003a65762000370816200021a565b6200037b846200022f565b810160208510156200038b578190505b620003a36200039a856200022f565b83018262000334565b50505b505050565b600082821c905092915050565b6000620003cb60001984600802620003ab565b1980831691505092915050565b6000620003e68383620003b8565b9150826002028217905092915050565b62000401826200017c565b67ffffffffffffffff8111156200041d576200041c62000187565b5b620004298254620001e5565b620004368282856200035b565b600060209050601f8311600181146200046e576000841562000459578287015190505b620004658582620003d8565b865550620004d5565b601f1984166200047e866200021a565b60005b82811015620004a85784890151825560018201915060208501945060208101905062000481565b86831015620004c85784890151620004c4601f891682620003b8565b8355505b6001600288020188555050505b505050505050565b612e3680620004ed6000396000f3fe608060405234801561001057600080fd5b50600436106101165760003560e01c806370a08231116100a2578063a22cb46511610071578063a22cb465146102cf578063b88d4fde146102eb578063c87b56dd14610307578063e985e9c514610337578063f2fde38b1461036757610116565b806370a0823114610259578063715018a6146102895780638da5cb5b1461029357806395d89b41146102b157610116565b806314f710fe116100e957806314f710fe146101b557806318160ddd146101d357806323b872dd146101f157806342842e0e1461020d5780636352211e1461022957610116565b806301ffc9a71461011b57806306fdde031461014b578063081812fc14610169578063095ea7b314610199575b600080fd5b61013560048036038101906101309190611cef565b610383565b6040516101429190611d37565b60405180910390f35b6101536103e4565b6040516101609190611de2565b60405180910390f35b610183600480360381019061017e9190611e3a565b610476565b6040516101909190611ea8565b60405180910390f35b6101b360048036038101906101ae9190611eef565b6104bc565b005b6101bd6105d3565b6040516101ca9190611f3e565b60405180910390f35b6101db610620565b6040516101e89190611f3e565b60405180910390f35b61020b60048036038101906102069190611f59565b610631565b005b61022760048036038101906102229190611f59565b610691565b005b610243600480360381019061023e9190611e3a565b6106b1565b6040516102509190611ea8565b60405180910390f35b610273600480360381019061026e9190611fac565b610737565b6040516102809190611f3e565b60405180910390f35b6102916107ee565b005b61029b610802565b6040516102a89190611ea8565b60405180910390f35b6102b961082c565b6040516102c69190611de2565b60405180910390f35b6102e960048036038101906102e49190612005565b6108be565b005b6103056004803603810190610300919061217a565b6108d4565b005b610321600480360381019061031c9190611e3a565b610936565b60405161032e9190611de2565b60405180910390f35b610351600480360381019061034c91906121fd565b610a48565b60405161035e9190611d37565b60405180910390f35b610381600480360381019061037c9190611fac565b610adc565b005b6000634906490660e01b7bffffffffffffffffffffffffffffffffffffffffffffffffffffffff1916827bffffffffffffffffffffffffffffffffffffffffffffffffffffffff191614806103dd57506103dc82610b5f565b5b9050919050565b6060600080546103f39061226c565b80601f016020809104026020016040519081016040528092919081815260200182805461041f9061226c565b801561046c5780601f106104415761010080835404028352916020019161046c565b820191906000526020600020905b81548152906001019060200180831161044f57829003601f168201915b5050505050905090565b600061048182610c41565b6004600083815260200190815260200160002060009054906101000a900473ffffffffffffffffffffffffffffffffffffffff169050919050565b60006104c7826106b1565b90508073ffffffffffffffffffffffffffffffffffffffff168373ffffffffffffffffffffffffffffffffffffffff1603610537576040517f08c379a000000000000000000000000000000000000000000000000000000000815260040161052e9061230f565b60405180910390fd5b8073ffffffffffffffffffffffffffffffffffffffff16610556610c8c565b73ffffffffffffffffffffffffffffffffffffffff16148061058557506105848161057f610c8c565b610a48565b5b6105c4576040517f08c379a00000000000000000000000000000000000000000000000000000000081526004016105bb906123a1565b60405180910390fd5b6105ce8383610c94565b505050565b60006105df6008610d4d565b60006105eb6008610d63565b90506105f73382610d71565b61061981604051806060016040528060358152602001612dcc60359139610d8f565b8091505090565b600061062c6008610d63565b905090565b61064261063c610c8c565b82610e33565b610681576040517f08c379a000000000000000000000000000000000000000000000000000000000815260040161067890612433565b60405180910390fd5b61068c838383610ec8565b505050565b6106ac838383604051806020016040528060008152506108d4565b505050565b6000806106bd836111c1565b9050600073ffffffffffffffffffffffffffffffffffffffff168173ffffffffffffffffffffffffffffffffffffffff160361072e576040517f08c379a00000000000000000000000000000000000000000000000000000000081526004016107259061249f565b60405180910390fd5b80915050919050565b60008073ffffffffffffffffffffffffffffffffffffffff168273ffffffffffffffffffffffffffffffffffffffff16036107a7576040517f08c379a000000000000000000000000000000000000000000000000000000000815260040161079e90612531565b60405180910390fd5b600360008373ffffffffffffffffffffffffffffffffffffffff1673ffffffffffffffffffffffffffffffffffffffff168152602001908152602001600020549050919050565b6107f66111fe565b610800600061127c565b565b6000600760009054906101000a900473ffffffffffffffffffffffffffffffffffffffff16905090565b60606001805461083b9061226c565b80601f01602080910402602001604051908101604052809291908181526020018280546108679061226c565b80156108b45780601f10610889576101008083540402835291602001916108b4565b820191906000526020600020905b81548152906001019060200180831161089757829003601f168201915b5050505050905090565b6108d06108c9610c8c565b8383611342565b5050565b6108e56108df610c8c565b83610e33565b610924576040517f08c379a000000000000000000000000000000000000000000000000000000000815260040161091b90612433565b60405180910390fd5b610930848484846114ae565b50505050565b606061094182610c41565b60006006600084815260200190815260200160002080546109619061226c565b80601f016020809104026020016040519081016040528092919081815260200182805461098d9061226c565b80156109da5780601f106109af576101008083540402835291602001916109da565b820191906000526020600020905b8154815290600101906020018083116109bd57829003601f168201915b5050505050905060006109eb61150a565b90506000815103610a00578192505050610a43565b600082511115610a35578082604051602001610a1d92919061258d565b60405160208183030381529060405292505050610a43565b610a3e84611521565b925050505b919050565b6000600560008473ffffffffffffffffffffffffffffffffffffffff1673ffffffffffffffffffffffffffffffffffffffff16815260200190815260200160002060008373ffffffffffffffffffffffffffffffffffffffff1673ffffffffffffffffffffffffffffffffffffffff16815260200190815260200160002060009054906101000a900460ff16905092915050565b610ae46111fe565b600073ffffffffffffffffffffffffffffffffffffffff168173ffffffffffffffffffffffffffffffffffffffff1603610b53576040517f08c379a0000000000000000000000000000000000000000000000000000000008152600401610b4a90612623565b60405180910390fd5b610b5c8161127c565b50565b60007f80ac58cd000000000000000000000000000000000000000000000000000000007bffffffffffffffffffffffffffffffffffffffffffffffffffffffff1916827bffffffffffffffffffffffffffffffffffffffffffffffffffffffff19161480610c2a57507f5b5e139f000000000000000000000000000000000000000000000000000000007bffffffffffffffffffffffffffffffffffffffffffffffffffffffff1916827bffffffffffffffffffffffffffffffffffffffffffffffffffffffff1916145b80610c3a5750610c3982611589565b5b9050919050565b610c4a816115f3565b610c89576040517f08c379a0000000000000000000000000000000000000000000000000000000008152600401610c809061249f565b60405180910390fd5b50565b600033905090565b816004600083815260200190815260200160002060006101000a81548173ffffffffffffffffffffffffffffffffffffffff021916908373ffffffffffffffffffffffffffffffffffffffff160217905550808273ffffffffffffffffffffffffffffffffffffffff16610d07836106b1565b73ffffffffffffffffffffffffffffffffffffffff167f8c5be1e5ebec7d5bd14f71427d1e84f3dd0314c0f7b2291e5b200ac8c7c3b92560405160405180910390a45050565b6001816000016000828254019250508190555050565b600081600001549050919050565b610d8b828260405180602001604052806000815250611634565b5050565b610d98826115f3565b610dd7576040517f08c379a0000000000000000000000000000000000000000000000000000000008152600401610dce906126b5565b60405180910390fd5b80600660008481526020019081526020016000209081610df79190612881565b507ff8e1a15aba9398e019f0b49df1a4fde98ee17ae345cb5f6b5e2c27f5033e8ce782604051610e279190611f3e565b60405180910390a15050565b600080610e3f836106b1565b90508073ffffffffffffffffffffffffffffffffffffffff168473ffffffffffffffffffffffffffffffffffffffff161480610e815750610e808185610a48565b5b80610ebf57508373ffffffffffffffffffffffffffffffffffffffff16610ea784610476565b73ffffffffffffffffffffffffffffffffffffffff16145b91505092915050565b8273ffffffffffffffffffffffffffffffffffffffff16610ee8826106b1565b73ffffffffffffffffffffffffffffffffffffffff1614610f3e576040517f08c379a0000000000000000000000000000000000000000000000000000000008152600401610f35906129c5565b60405180910390fd5b600073ffffffffffffffffffffffffffffffffffffffff168273ffffffffffffffffffffffffffffffffffffffff1603610fad576040517f08c379a0000000000000000000000000000000000000000000000000000000008152600401610fa490612a57565b60405180910390fd5b610fba838383600161168f565b8273ffffffffffffffffffffffffffffffffffffffff16610fda826106b1565b73ffffffffffffffffffffffffffffffffffffffff1614611030576040517f08c379a0000000000000000000000000000000000000000000000000000000008152600401611027906129c5565b60405180910390fd5b6004600082815260200190815260200160002060006101000a81549073ffffffffffffffffffffffffffffffffffffffff02191690556001600360008573ffffffffffffffffffffffffffffffffffffffff1673ffffffffffffffffffffffffffffffffffffffff168152602001908152602001600020600082825403925050819055506001600360008473ffffffffffffffffffffffffffffffffffffffff1673ffffffffffffffffffffffffffffffffffffffff16815260200190815260200160002060008282540192505081905550816002600083815260200190815260200160002060006101000a81548173ffffffffffffffffffffffffffffffffffffffff021916908373ffffffffffffffffffffffffffffffffffffffff160217905550808273ffffffffffffffffffffffffffffffffffffffff168473ffffffffffffffffffffffffffffffffffffffff167fddf252ad1be2c89b69c2b068fc378daa952ba7f163c4a11628f55a4df523b3ef60405160405180910390a46111bc8383836001611695565b505050565b60006002600083815260200190815260200160002060009054906101000a900473ffffffffffffffffffffffffffffffffffffffff169050919050565b611206610c8c565b73ffffffffffffffffffffffffffffffffffffffff16611224610802565b73ffffffffffffffffffffffffffffffffffffffff161461127a576040517f08c379a000000000000000000000000000000000000000000000000000000000815260040161127190612ac3565b60405180910390fd5b565b6000600760009054906101000a900473ffffffffffffffffffffffffffffffffffffffff16905081600760006101000a81548173ffffffffffffffffffffffffffffffffffffffff021916908373ffffffffffffffffffffffffffffffffffffffff1602179055508173ffffffffffffffffffffffffffffffffffffffff168173ffffffffffffffffffffffffffffffffffffffff167f8be0079c531659141344cd1fd0a4f28419497f9722a3daafe3b4186f6b6457e060405160405180910390a35050565b8173ffffffffffffffffffffffffffffffffffffffff168373ffffffffffffffffffffffffffffffffffffffff16036113b0576040517f08c379a00000000000000000000000000000000000000000000000000000000081526004016113a790612b2f565b60405180910390fd5b80600560008573ffffffffffffffffffffffffffffffffffffffff1673ffffffffffffffffffffffffffffffffffffffff16815260200190815260200160002060008473ffffffffffffffffffffffffffffffffffffffff1673ffffffffffffffffffffffffffffffffffffffff16815260200190815260200160002060006101000a81548160ff0219169083151502179055508173ffffffffffffffffffffffffffffffffffffffff168373ffffffffffffffffffffffffffffffffffffffff167f17307eab39ab6107e8899845ad3d59bd9653f200f220920489ca2b5937696c31836040516114a19190611d37565b60405180910390a3505050565b6114b9848484610ec8565b6114c58484848461169b565b611504576040517f08c379a00000000000000000000000000000000000000000000000000000000081526004016114fb90612bc1565b60405180910390fd5b50505050565b606060405180602001604052806000815250905090565b606061152c82610c41565b600061153661150a565b905060008151116115565760405180602001604052806000815250611581565b8061156084611822565b60405160200161157192919061258d565b6040516020818303038152906040525b915050919050565b60007f01ffc9a7000000000000000000000000000000000000000000000000000000007bffffffffffffffffffffffffffffffffffffffffffffffffffffffff1916827bffffffffffffffffffffffffffffffffffffffffffffffffffffffff1916149050919050565b60008073ffffffffffffffffffffffffffffffffffffffff16611615836111c1565b73ffffffffffffffffffffffffffffffffffffffff1614159050919050565b61163e83836118f0565b61164b600084848461169b565b61168a576040517f08c379a000000000000000000000000000000000000000000000000000000000815260040161168190612bc1565b60405180910390fd5b505050565b50505050565b50505050565b60006116bc8473ffffffffffffffffffffffffffffffffffffffff16611b0d565b15611815578373ffffffffffffffffffffffffffffffffffffffff1663150b7a026116e5610c8c565b8786866040518563ffffffff1660e01b81526004016117079493929190612c36565b6020604051808303816000875af192505050801561174357506040513d601f19601f820116820180604052508101906117409190612c97565b60015b6117c5573d8060008114611773576040519150601f19603f3d011682016040523d82523d6000602084013e611778565b606091505b5060008151036117bd576040517f08c379a00000000000000000000000000000000000000000000000000000000081526004016117b490612bc1565b60405180910390fd5b805181602001fd5b63150b7a0260e01b7bffffffffffffffffffffffffffffffffffffffffffffffffffffffff1916817bffffffffffffffffffffffffffffffffffffffffffffffffffffffff19161491505061181a565b600190505b949350505050565b60606000600161183184611b30565b01905060008167ffffffffffffffff8111156118505761184f61204f565b5b6040519080825280601f01601f1916602001820160405280156118825781602001600182028036833780820191505090505b509050600082602001820190505b6001156118e5578080600190039150507f3031323334353637383961626364656600000000000000000000000000000000600a86061a8153600a85816118d9576118d8612cc4565b5b04945060008503611890575b819350505050919050565b600073ffffffffffffffffffffffffffffffffffffffff168273ffffffffffffffffffffffffffffffffffffffff160361195f576040517f08c379a000000000000000000000000000000000000000000000000000000000815260040161195690612d3f565b60405180910390fd5b611968816115f3565b156119a8576040517f08c379a000000000000000000000000000000000000000000000000000000000815260040161199f90612dab565b60405180910390fd5b6119b660008383600161168f565b6119bf816115f3565b156119ff576040517f08c379a00000000000000000000000000000000000000000000000000000000081526004016119f690612dab565b60405180910390fd5b6001600360008473ffffffffffffffffffffffffffffffffffffffff1673ffffffffffffffffffffffffffffffffffffffff16815260200190815260200160002060008282540192505081905550816002600083815260200190815260200160002060006101000a81548173ffffffffffffffffffffffffffffffffffffffff021916908373ffffffffffffffffffffffffffffffffffffffff160217905550808273ffffffffffffffffffffffffffffffffffffffff16600073ffffffffffffffffffffffffffffffffffffffff167fddf252ad1be2c89b69c2b068fc378daa952ba7f163c4a11628f55a4df523b3ef60405160405180910390a4611b09600083836001611695565b5050565b6000808273ffffffffffffffffffffffffffffffffffffffff163b119050919050565b600080600090507a184f03e93ff9f4daa797ed6e38ed64bf6a1f0100000000000000008310611b8e577a184f03e93ff9f4daa797ed6e38ed64bf6a1f0100000000000000008381611b8457611b83612cc4565b5b0492506040810190505b6d04ee2d6d415b85acef81000000008310611bcb576d04ee2d6d415b85acef81000000008381611bc157611bc0612cc4565b5b0492506020810190505b662386f26fc100008310611bfa57662386f26fc100008381611bf057611bef612cc4565b5b0492506010810190505b6305f5e1008310611c23576305f5e1008381611c1957611c18612cc4565b5b0492506008810190505b6127108310611c48576127108381611c3e57611c3d612cc4565b5b0492506004810190505b60648310611c6b5760648381611c6157611c60612cc4565b5b0492506002810190505b600a8310611c7a576001810190505b80915050919050565b6000604051905090565b600080fd5b600080fd5b60007fffffffff0000000000000000000000000000000000000000000000000000000082169050919050565b611ccc81611c97565b8114611cd757600080fd5b50565b600081359050611ce981611cc3565b92915050565b600060208284031215611d0557611d04611c8d565b5b6000611d1384828501611cda565b91505092915050565b60008115159050919050565b611d3181611d1c565b82525050565b6000602082019050611d4c6000830184611d28565b92915050565b600081519050919050565b600082825260208201905092915050565b60005b83811015611d8c578082015181840152602081019050611d71565b60008484015250505050565b6000601f19601f8301169050919050565b6000611db482611d52565b611dbe8185611d5d565b9350611dce818560208601611d6e565b611dd781611d98565b840191505092915050565b60006020820190508181036000830152611dfc8184611da9565b905092915050565b6000819050919050565b611e1781611e04565b8114611e2257600080fd5b50565b600081359050611e3481611e0e565b92915050565b600060208284031215611e5057611e4f611c8d565b5b6000611e5e84828501611e25565b91505092915050565b600073ffffffffffffffffffffffffffffffffffffffff82169050919050565b6000611e9282611e67565b9050919050565b611ea281611e87565b82525050565b6000602082019050611ebd6000830184611e99565b92915050565b611ecc81611e87565b8114611ed757600080fd5b50565b600081359050611ee981611ec3565b92915050565b60008060408385031215611f0657611f05611c8d565b5b6000611f1485828601611eda565b9250506020611f2585828601611e25565b9150509250929050565b611f3881611e04565b82525050565b6000602082019050611f536000830184611f2f565b92915050565b600080600060608486031215611f7257611f71611c8d565b5b6000611f8086828701611eda565b9350506020611f9186828701611eda565b9250506040611fa286828701611e25565b9150509250925092565b600060208284031215611fc257611fc1611c8d565b5b6000611fd084828501611eda565b91505092915050565b611fe281611d1c565b8114611fed57600080fd5b50565b600081359050611fff81611fd9565b92915050565b6000806040838503121561201c5761201b611c8d565b5b600061202a85828601611eda565b925050602061203b85828601611ff0565b9150509250929050565b600080fd5b600080fd5b7f4e487b7100000000000000000000000000000000000000000000000000000000600052604160045260246000fd5b61208782611d98565b810181811067ffffffffffffffff821117156120a6576120a561204f565b5b80604052505050565b60006120b9611c83565b90506120c5828261207e565b919050565b600067ffffffffffffffff8211156120e5576120e461204f565b5b6120ee82611d98565b9050602081019050919050565b82818337600083830152505050565b600061211d612118846120ca565b6120af565b9050828152602081018484840111156121395761213861204a565b5b6121448482856120fb565b509392505050565b600082601f83011261216157612160612045565b5b813561217184826020860161210a565b91505092915050565b6000806000806080858703121561219457612193611c8d565b5b60006121a287828801611eda565b94505060206121b387828801611eda565b93505060406121c487828801611e25565b925050606085013567ffffffffffffffff8111156121e5576121e4611c92565b5b6121f18782880161214c565b91505092959194509250565b6000806040838503121561221457612213611c8d565b5b600061222285828601611eda565b925050602061223385828601611eda565b9150509250929050565b7f4e487b7100000000000000000000000000000000000000000000000000000000600052602260045260246000fd5b6000600282049050600182168061228457607f821691505b6020821081036122975761229661223d565b5b50919050565b7f4552433732313a20617070726f76616c20746f2063757272656e74206f776e6560008201527f7200000000000000000000000000000000000000000000000000000000000000602082015250565b60006122f9602183611d5d565b91506123048261229d565b604082019050919050565b60006020820190508181036000830152612328816122ec565b9050919050565b7f4552433732313a20617070726f76652063616c6c6572206973206e6f7420746f60008201527f6b656e206f776e6572206f7220617070726f76656420666f7220616c6c000000602082015250565b600061238b603d83611d5d565b91506123968261232f565b604082019050919050565b600060208201905081810360008301526123ba8161237e565b9050919050565b7f4552433732313a2063616c6c6572206973206e6f7420746f6b656e206f776e6560008201527f72206f7220617070726f76656400000000000000000000000000000000000000602082015250565b600061241d602d83611d5d565b9150612428826123c1565b604082019050919050565b6000602082019050818103600083015261244c81612410565b9050919050565b7f4552433732313a20696e76616c696420746f6b656e2049440000000000000000600082015250565b6000612489601883611d5d565b915061249482612453565b602082019050919050565b600060208201905081810360008301526124b88161247c565b9050919050565b7f4552433732313a2061646472657373207a65726f206973206e6f74206120766160008201527f6c6964206f776e65720000000000000000000000000000000000000000000000602082015250565b600061251b602983611d5d565b9150612526826124bf565b604082019050919050565b6000602082019050818103600083015261254a8161250e565b9050919050565b600081905092915050565b600061256782611d52565b6125718185612551565b9350612581818560208601611d6e565b80840191505092915050565b6000612599828561255c565b91506125a5828461255c565b91508190509392505050565b7f4f776e61626c653a206e6577206f776e657220697320746865207a65726f206160008201527f6464726573730000000000000000000000000000000000000000000000000000602082015250565b600061260d602683611d5d565b9150612618826125b1565b604082019050919050565b6000602082019050818103600083015261263c81612600565b9050919050565b7f45524337323155524953746f726167653a2055524920736574206f66206e6f6e60008201527f6578697374656e7420746f6b656e000000000000000000000000000000000000602082015250565b600061269f602e83611d5d565b91506126aa82612643565b604082019050919050565b600060208201905081810360008301526126ce81612692565b9050919050565b60008190508160005260206000209050919050565b60006020601f8301049050919050565b600082821b905092915050565b6000600883026127377fffffffffffffffffffffffffffffffffffffffffffffffffffffffffffffffff826126fa565b61274186836126fa565b95508019841693508086168417925050509392505050565b6000819050919050565b600061277e61277961277484611e04565b612759565b611e04565b9050919050565b6000819050919050565b61279883612763565b6127ac6127a482612785565b848454612707565b825550505050565b600090565b6127c16127b4565b6127cc81848461278f565b505050565b5b818110156127f0576127e56000826127b9565b6001810190506127d2565b5050565b601f82111561283557612806816126d5565b61280f846126ea565b8101602085101561281e578190505b61283261282a856126ea565b8301826127d1565b50505b505050565b600082821c905092915050565b60006128586000198460080261283a565b1980831691505092915050565b60006128718383612847565b9150826002028217905092915050565b61288a82611d52565b67ffffffffffffffff8111156128a3576128a261204f565b5b6128ad825461226c565b6128b88282856127f4565b600060209050601f8311600181146128eb57600084156128d9578287015190505b6128e38582612865565b86555061294b565b601f1984166128f9866126d5565b60005b82811015612921578489015182556001820191506020850194506020810190506128fc565b8683101561293e578489015161293a601f891682612847565b8355505b6001600288020188555050505b505050505050565b7f4552433732313a207472616e736665722066726f6d20696e636f72726563742060008201527f6f776e6572000000000000000000000000000000000000000000000000000000602082015250565b60006129af602583611d5d565b91506129ba82612953565b604082019050919050565b600060208201905081810360008301526129de816129a2565b9050919050565b7f4552433732313a207472616e7366657220746f20746865207a65726f2061646460008201527f7265737300000000000000000000000000000000000000000000000000000000602082015250565b6000612a41602483611d5d565b9150612a4c826129e5565b604082019050919050565b60006020820190508181036000830152612a7081612a34565b9050919050565b7f4f776e61626c653a2063616c6c6572206973206e6f7420746865206f776e6572600082015250565b6000612aad602083611d5d565b9150612ab882612a77565b602082019050919050565b60006020820190508181036000830152612adc81612aa0565b9050919050565b7f4552433732313a20617070726f766520746f2063616c6c657200000000000000600082015250565b6000612b19601983611d5d565b9150612b2482612ae3565b602082019050919050565b60006020820190508181036000830152612b4881612b0c565b9050919050565b7f4552433732313a207472616e7366657220746f206e6f6e20455243373231526560008201527f63656976657220696d706c656d656e7465720000000000000000000000000000602082015250565b6000612bab603283611d5d565b9150612bb682612b4f565b604082019050919050565b60006020820190508181036000830152612bda81612b9e565b9050919050565b600081519050919050565b600082825260208201905092915050565b6000612c0882612be1565b612c128185612bec565b9350612c22818560208601611d6e565b612c2b81611d98565b840191505092915050565b6000608082019050612c4b6000830187611e99565b612c586020830186611e99565b612c656040830185611f2f565b8181036060830152612c778184612bfd565b905095945050505050565b600081519050612c9181611cc3565b92915050565b600060208284031215612cad57612cac611c8d565b5b6000612cbb84828501612c82565b91505092915050565b7f4e487b7100000000000000000000000000000000000000000000000000000000600052601260045260246000fd5b7f4552433732313a206d696e7420746f20746865207a65726f2061646472657373600082015250565b6000612d29602083611d5d565b9150612d3482612cf3565b602082019050919050565b60006020820190508181036000830152612d5881612d1c565b9050919050565b7f4552433732313a20746f6b656e20616c7265616479206d696e74656400000000600082015250565b6000612d95601c83611d5d565b9150612da082612d5f565b602082019050919050565b60006020820190508181036000830152612dc481612d88565b905091905056fe697066733a2f2f516d6277584a3832324c475464735078646b425552593339636b6d5a4e484e574475705262796e6a4e395536386aa26469706673582212203b1321b51124475b4c5c165719c44e5cf30f687144c3cac94d64ef2d782485f864736f6c634300081300334275696c74204f6e20426173652c204f6e636861696e2053756d6d6572205370656369616c",
  "linkReferences": {},
  "deployedLinkReferences": {}
}